:020000040800F2
:10000000200F0020893D0008450100084701000835
:100010006F0100087301000877010008000000006C
:100020000000000000000000000000007B0100084C
:100030007D010008000000007F010008A13D0008CC
:10004000A33D0008A33D0008A33D0008A33D000810
:10005000A33D0008A33D0008A33D0008A33D000800
:10006000A33D0008A33D0008A33D0008A33D0008F0
:10007000A33D0008A33D0008A33D0008A33D0008E0
:10008000A33D0008A33D0008A33D0008A33D0008D0
:10009000A33D0008A33D0008A33D0008A33D0008C0
:1000A000A33D0008A33D0008A33D0008A33D0008B0
:1000B000F51F0008A33D0008A33D0008A33D00086C
:1000C000A33D0008A33D0008A33D0008A33D000890
:1000D000A33D0008CD080008A33D0008A33D00088B
:1000E000A33D0008A33D0008A33D0008A33D000870
:1000F000A33D0008A33D0008A33D0008A33D000860
:10010000A33D0008A33D0008A33D0008A33D00084F
:10011000A33D0008A33D0008A33D0008A33D00083F
:10012000A33D0008A33D0008A33D0008A33D00082F
:10013000DFF80CD004F044FD0048004761030008DC
:10014000200F0020704711E071B600BFBFF34F8F42
:100150000B48006800F4E0600A490843001D0849A4
:100160000860BFF34F8F00BF00BFFEE7ECE700BFA2
:10017000FEE700BFFEE700BFFEE77047704770472D
:100180000CED00E00000FA0500B585B00020ED4957
:10019000C1F81402EC4A4FF4FA71EA48203004F036
:1001A0003AFA03286CD10020E8490860E849087051
:1001B0004FF4FA73E3492031081F021FCDE90313FE
:1001C000CDE901201038831E021F1C3900900C3825
:1001D00004F06AF8DB498869DEA104F090FC00288D
:1001E00073D0D8498869DFA104F089FC00286CD05D
:1001F000D4498869DEA104F082FC00282AD0E048B6
:10020000006838B1DFA2E0A1EA4804F027FDEA491E
:10021000086006E0E9A2DCA1E64804F01FFDE6491B
:1002200008600120E6490875E3480068E149CDE926
:100230000210E349D1E90401CDE90001E0480FC80B
:1002400003F09CFEDC49086008460168DD4800F0C8
:1002500017FB3AE0BB498869DBA104F050FC20B1F0
:100260000120C749803108602FE0B6498869DAA1CA
:1002700004F045FC48B30020C1498031086024E007
:100280000020B049C1F81402AF4A4FF4FA71AD48EA
:10029000203004F0C0F90D2805D10020D2490870A3
:1002A000AB49087011E00020A649C1F81402A64A23
:1002B0004FF4FA71A348203004F0ADF90E2804D1B0
:1002C0000020CA490870CA4908604FF4FA719D4875
:1002D000203004F009FC05B000BD10B5C548006829
:1002E0004FF47A71B0FBF1F0C3490978884214D316
:1002F0000020C049086003F060FEAF49086008466E
:100300000168B04800F0BCFA0120B7490870904875
:100310000078401C8E49087016E08C48006841F255
:100320008831884210D900208849086003F045FED2
:10033000A149086008460168A24800F0A1FA844873
:100340000078401C8249087081480078032806DB49
:1003500000207F490870A5490870A549086010BDB4
:100360001FB500F0ADF94FF4E13000F04BFA00F0AA
:10037000F3FA00F0DDF901F015FE4FF443710620A9
:1003800001F0FAFD01F0FAF901F08EF800221146B1
:10039000242001F080F901220021362001F07BF9B0
:1003A00002220021482001F076F9102393A20321B4
:1003B000192001F053F9102391A20521192001F011
:1003C0004DF903221146502001F065F910238DA24A
:1003D0000521502001F042F9B3E001F0DFFD8A4829
:1003E000007808B900F083FC01F054FA8748C0682F
:1003F000012816D18548406940F6B831884210DBA3
:1004000000208249C8608048007850B901207E49A8
:10041000087001F080FA20B1002074490870744916
:10042000086072480078002833D0FFF756FF544820
:1004300000687749097888422BD051480068744990
:1004400008700846007830B172A15A4804F006FCE2
:100450005949086005E07AA1564804F0FFFB564967
:100460000860012056490875534800685149CDE994
:1004700002105349D1E90401CDE9000150480FC8E9
:1004800003F07CFD4C490860084601684D4800F0C7
:10049000F7F97648007898B10020744908707448DC
:1004A000006818B173487249096888474F48007856
:1004B00008B1FFF769FE704801686E4804F014FB4C
:1004C0006E48006841F2883188423AD300F07BFEE2
:1004D00000206A49086010200090694802780223D1
:1004E0000321372001F076F81020009064488278CC
:1004F00002230521372001F06DF83C48007800B355
:1005000000202F4908755E48837802785DA129484C
:1005100004F0A4FB28490860084600682549CDE995
:1005200002102749D1E90401CDE9000124480FC890
:1005300003F024FD2049086008460168214800F0C6
:100540009FF94AE7F4060020AD3D0008AC0000200A
:10055000B50000202264617461223A2273776974C5
:100560006368220022626974223A2231220000006C
:1005700022737461747573223A222D3122000000B7
:1005800004812142310000007B2264617461223ABF
:1005900022737769746368222C22626974223A227A
:1005A00031222C22737461747573223A22257322CE
:1005B0007D000000BC020020000000203000000090
:1005C0008403002000050020227374617475732277
:1005D0003A22312200000000227374617475732284
:1005E0003A22302200000000B4000020F000002079
:1005F000EC000020B00000204B00002054203A0006
:1006000048203A0020250000140200205C0400204D
:10061000BC0000207B2264617461223A22737769F6
:10062000746368222C22626974223A2231222C22BD
:10063000737461747573223A2231227D00000000C8
:100640007B2264617461223A227377697463682241
:100650002C22626974223A2231222C227374617432
:100660007573223A2230227D00000000D400002061
:10067000E40000209C030020C8000020B8000020F7
:100680000D0100207B2264617461223A22544822C9
:100690002C22626974223A2231222C2274656D70F8
:1006A00065726174757265223A222564222C226873
:1006B000756D6964697479223A222564227D00008F
:1006C00008B54FF4A06001F03FFE25208DF8000032
:1006D00000208DF801008DF8020001208DF8030044
:1006E000684601F036FE1C208DF8000001208DF8D0
:1006F000030003208DF801008DF80200684601F028
:1007000028FE08BD71B600BFBFF34F8F06480068D2
:1007100000F4E06005490843001D03490860BFF389
:100720004F8F00BF00BFFEE70CED00E00000FA05B0
:1007300010B56FF0040001F056FE2E4800682E49F7
:10074000B0FBF1F02D4908700846007800EB40013D
:10075000C1EBC0104FF6FF7101EAC00028490880C4
:1007600010BD0146254A12784A434FF0E0235A61F2
:1007700000229A611A46126942F001021A6100BF12
:100780004FF0E022106900F001021AB100F480324B
:10079000002AF5D04FF0E022126922F001024FF05A
:1007A000E0231A6100229A6170470146144A1288B8
:1007B0004A434FF0E0235A6100229A611A461269B7
:1007C00042F001021A6100BF4FF0E022106900F010
:1007D00001021AB100F48032002AF5D04FF0E02275
:1007E000126922F001024FF0E0231A6100229A619F
:1007F000704700002802002000127A00BE0000208E
:10080000C000002010B586B00446012144F2040067
:1008100001F076FF4FF40070ADF8140003208DF85E
:10082000160018208DF8170005A9454802F030FA87
:100830004FF48060ADF8140004208DF8170005A96E
:100840003F4802F025FA01940020ADF80800ADF809
:100850000A00ADF80C00ADF810000C20ADF80E0049
:1008600001A9384801F0F3FF012240F22551354833
:1008700002F085F80121334802F075F806B010BD8A
:1008800070B504460D460BE014F8011B2D4802F02C
:10089000D7F800BF80212B4802F040F90028F9D09A
:1008A0002800A5F10105EFD16420FFF77EFF70BDA0
:1008B00010B504462146234802F0C2F800BF80214B
:1008C000204802F02BF90028F9D010BD10B540F2F5
:1008D00025511C4802F038F9A8B11A4802F0B4F8C2
:1008E000C4B2194819490968445418480068401CA2
:1008F00016490860084600688C2801D90020086065
:1009000000201349086010BD70B504460E46E5B2DC
:100910001048007838B901200E49087040F226616D
:10092000084802F03BF9E1B2064802F089F800BF3E
:100930004021044802F0F2F80028F9D0204670BDAA
:1009400000080140003801409C030020C400002042
:10095000CC000020D500002008B501217D2001F049
:10096000CFFE4FF40050ADF8000010208DF80300CA
:1009700003208DF802006946154802F089F9062027
:10098000ADF8000010208DF8030003208DF8020060
:100990006946104802F07CF92020ADF8000048209C
:1009A0008DF8030003208DF802006946094802F023
:1009B0006FF94FF40070ADF8000014208DF80300BB
:1009C00003208DF802006946024802F061F908BD73
:1009D00000100140000C014070B505460E4614465B
:1009E00000202549086001202449086043E001F007
:1009F000D5FA2248006801280DD10020204908605E
:100A00009621204804F070F800201C49086029460F
:100A10001DA004F013F91D480078012812D1002010
:100A20001A49087036B13146164804F068F808B122
:100A3000012070BD34B12146124804F060F808B1BD
:100A40000120F6E70E48006841F2883188420ADB4F
:100A500000200B490860012008490860064800682A
:100A6000401C0549086004480068032803DB002097
:100A700001490860DDE7BAE7D8000020DC0000206B
:100A8000E00000209C03002025730000D40000201B
:100A900010B50446F5A2F6A1204600F0CFFAF749BA
:100AA00008600846006804F03CF8112816D11E21A1
:100AB000F34804F019F81122F0480168F04803F0F7
:100AC000FAFF0120EF490870EF48006810B9EF48BD
:100AD000006801E0EC480068EC49086000F0A8FA02
:100AE00010BD00B585B01E21E94803F0FDFFE44BC1
:100AF000E8A2EAA1E64804F0B1F8EA480078EA4939
:100B00000978EA4AE24BCDE90132CDE90310E84821
:100B100000780090E7480378E74AE849D84803F0AE
:100B20005AF9E749086008460168E648FFF7A8FE59
:100B300005B000BD10B5044603F096F960B9012078
:100B4000D0490870D048006810B9D048006801E06A
:100B5000CD480068CD49086010BD00B585B00020C3
:100B60000290039004900190C821D74803F0BCFF85
:100B7000C34BD6A2C9A1D44804F070F8D248029061
:100B800001200023024601A9009002A803F08FF97A
:100B9000CB49086008460168CA48FFF771FE05B0F6
:100BA00000BD10B5044603F0ABF960B90120B549AA
:100BB0000870B548006810B9B448006801E0B24850
:100BC0000068B249086010BD1FB51E21B04803F08F
:100BD0008BFFAB4BAFA2B1A1AD4804F03FF8AC48DE
:100BE000BC4908600020086101200875BAA1B64818
:100BF00004F034F8B249086008460068B249CDE90B
:100C00000210B449D1E90401CDE90001B1480FC88F
:100C100003F0B4F9AA49086008460168A948FFF73B
:100C20002FFE0020AB4908751FBD2DE9F047044693
:100C30000D4617461E46DDE90889B04803F071FFEE
:100C400082465146AD4803F04FFFAD4803F069FFBF
:100C500082465146AA4803F047FF27B13A46A9A168
:100C6000A64803F0FBFF26B13246A6A1A44803F034
:100C7000F5FF05B1A847A448C0F800808248C0F835
:100C800000901CB121469FA003F0D8FFBDE8F0877B
:100C900010B50446994803F044FF88B197492046AF
:100CA00003F02DFF60B10120764908707648006896
:100CB00010B97648006801E073480068734908601D
:100CC0008F4803F02EFF88B18D49204603F017FFAF
:100CD00060B101206B4908706B48006810B96B481F
:100CE000006801E0684800686849086010BD1CB5EC
:100CF000664800688549096888427CD9844800783C
:100D0000002878D1614908605E48007801280AD13E
:100D10000020804908605B4908707F480068401CDB
:100D20007D4908600CE07B480068401C79490860F8
:100D300008460068032803DB002008607649086045
:100D4000754800680B2870D2DFE800F006131927F9
:100D500034415D69707C8A00002070490860012080
:100D60004849087069480068A0F5FA70474908606A
:100D700019E10120694908604249087013E163489C
:100D800000686438AFF2F701002365A2CDE90010D6
:100D9000194663A0FFF749FF05E15C480068AFF220
:100DA0000F1100235FA2CDE9001019465EA0FFF7E6
:100DB0003CFFF8E055480068AFF22B3100231A469B
:100DC000CDE9001019465AA0FFF72FFFEBE05D4B6D
:100DD0005D4A5EA13C4803F041FF394908600020AC
:100DE0003949374A1268885448480068AFF25F11A1
:100DF0005FA34CA200E0D7E0CDE90010002132480B
:100E0000FFF713FFCFE000204449086001201D498F
:100E100008703E48006864381C490860C3E001203F
:100E20003E49086017490870BDE0ABE00020AFF212
:100E3000FB2103460246CDE90010AFF25931FFF71E
:100E4000F4FEB0E031480068AFF2A92100231A4651
:100E5000CDE90010AFF2FD211846FFF7E6FEA2E053
:100E6000FFF7B2FE0120074908709CE02200000055
:100E70004D41435F4355523A2200000004000020D8
:100E80001900002000010020F8000020E8000020E8
:100E90004C0000206465766963652F002573257317
:100EA00000000000A8000020A7000020750000201E
:100EB000740000204B00002041000020370000207B
:100EC0000000002000050020BC0200207573657240
:100ED0002F000000840300207B2264617461223AA9
:100EE00022737461747573222C2273746174757328
:100EF000223A226F6E6C696E65227D0032040020FA
:100F00004604002025730000E4000020F4000020C7
:100F1000F0000020FC000020EC000020888121422D
:100F20002B2B2B004F4B0000415445300D0A000085
:100F300041542B4349505354414D41435F43555213
:100F40003F0D0A00120000200800002041542B53DE
:100F50004156455452414E534C494E4B3D312C2243
:100F60002573222C25732C22544350220D0A000095
:100F7000414C524541445920434F4E4E4543544500
:100F8000440000000948006800210B460A46CDE9EC
:100F900000100846FFF749FE0020054908700120AF
:100FA0000449087000BF00BF1CBD0000F400002011
:100FB00000010020F000002010B54B48006804F04C
:100FC00017F810BD2DE9F04781460F4690460024E2
:100FD00000260025384603F0A4FDC5B23946484630
:100FE00003F08DFD04460CB36119481C414603F023
:100FF00086FD0646C6B16119711A481C04F020F836
:10100000394908606019301A411C3748006803F0FC
:101010006BFD6019321A61193348006803F04BFD0B
:1010200031480068BDE8F0870020FBE70020F9E7C1
:101030002E4800782E490968087070472DE9F04164
:1010400080460D46164600240027284603F069FD19
:10105000C7B22946404603F052FD0446BCB1E1192F
:10106000481C314603F04BFD2149086008460068E2
:1010700058B10846006800781C49087000201C49D7
:1010800009680870E019BDE8F0810020FBE7002046
:10109000F9E72DE9F04707460E46144698464FF00B
:1010A00000091FB1384603F03CFD08B9BDE8F087E0
:1010B0001EB1304603F035FD00B9F7E7314638463A
:1010C00003F046FD054608E004B120C409F101091A
:1010D0003146002003F03CFD0546002DF4D1C8F850
:1010E000009000BFE2E70000040100200C01002096
:1010F0000801002010B500206C4908601420FFF79B
:1011000054FB01206A49C1F8A4011E20FFF729FB06
:1011100010BD10B5002404E0601CC4B20120FFF72C
:1011200020FB62488038006808B1642CF4DB642C32
:1011300001DB012010BD002404E0601CC4B20120CA
:10114000FFF70FFB59488038006808B9642CF4DBBE
:10115000642C01DB0120EDE70020EBE710B5002453
:1011600004E0601CC4B20120FFF7FBFA4F4880384E
:10117000006808B1642CF4DB002404E0601CC4B2F5
:101180000120FFF7EEFA49488038006808B9642C5E
:10119000F4DB2320FFF7E5FA44488038006808B103
:1011A000012010BD0020FCE770B50024002506E0FA
:1011B0006006040EFFF7D2FF0443681CC5B2082D79
:1011C000F6DB204670BD1CB5FFF794FFFFF7A1FFCB
:1011D000002869D1002405E0FFF7E6FF0DF80400C0
:1011E000601CC4B2052CF7DB9DF800009DF80110CF
:1011F00008449DF8021008449DF8031008449DF827
:101200000410884215D19DF800002A4908709DF805
:10121000010048709DF8020088709DF80300C870B6
:1012200008468078244908702248007823490870CD
:101230002DE0204A9278204B1B78991A002901DB77
:101240000A4600E04A42032A1CDA1A4A12781B4B6B
:101250001B78981A002801DB024600E04242032A6C
:1012600010DA9DF80000134908709DF801004870DD
:101270009DF8020088709DF80300C8700020104996
:10128000087004E00E480078401C0D4908700C48B6
:101290000078052808DD002009490870FF2005496D
:1012A000087048708870C8701CBD0000A48121427D
:1012B000008021420D0100201201002013010020B6
:1012C0001101002010B54021F94801F08EFD802168
:1012D000F74801F08AFD8021F54801F088FD4021A2
:1012E000F34801F084FD10BD10B54021F04801F035
:1012F0007CFD8021EE4801F07AFD8021EC4801F070
:1013000074FD10BD10B54021E94801F06EFD40218B
:10131000E74801F06CFD10BD2DE9F04105462C4673
:101320004021E34801F063FD002619E0274607F05D
:101330008007802F04D18021DD4801F056FD03E0B5
:101340008021DB4801F053FD6006040E4021D8489F
:1013500001F04BFD4021D64801F049FD701CC6B29A
:10136000082EE3DBBDE8F08110B50446FFF7AAFFC5
:101370007820FFF7D1FFFFF7C5FF0020FFF7CCFF74
:10138000FFF7C0FF2046FFF7C7FFFFF7BBFFFFF7E0
:10139000ABFF10BD10B50446FFF794FF7820FFF7B0
:1013A000BBFFFFF7AFFF4020FFF7B6FFFFF7AAFF35
:1013B0002046FFF7B1FFFFF7A5FFFFF795FF10BD30
:1013C00070B504460D461DB1E0B2FFF7E3FF02E041
:1013D000E0B2FFF7C9FF70BD70B50646002418E003
:1013E00004F1B0000021FFF7EBFF00210846FFF7F2
:1013F000E7FF00211020FFF7E3FF002505E00121B2
:101400003046FFF7DDFF681CC5B2802DF7DB601C9E
:10141000C4B2082CE4DB70BD06E041F6650100E0D3
:10142000491E0029FCD1401E0028F6D17047014614
:1014300005E0002001E0421CD0B27B28FBDB0A0063
:10144000A1F10101F5D1704770B504460D4605F1D3
:10145000B0000021FFF7B4FF102141EA1410002171
:10146000FFF7AEFF04F00F000021FFF7A9FF70BDEA
:1014700010B500218D20FFF7A3FF00211420FFF7F6
:101480009FFF0021AF20FFF79BFF10BD10B500218B
:101490008D20FFF795FF00211020FFF791FF00211D
:1014A000AE20FFF78DFF10BD70B5002418E004F1E9
:1014B000B0000021FFF784FF00210846FFF780FFFE
:1014C00000211020FFF77CFF002505E0012100200E
:1014D000FFF776FF681CC5B2802DF7DB601CC4B235
:1014E000082CE4DB70BD70B5002418E004F1B000F6
:1014F0000021FFF765FF00210846FFF761FF00218B
:101500001020FFF75DFF002505E001210846FFF7E9
:1015100057FF681CC5B2802DF7DB601CC4B2082CD5
:10152000E4DB70BD2DE9F04707460E46904699462C
:1015300000250024A8F12000C5B27F2F02DD00277E
:10154000B01CC6B2B9F1100F24D131463846FFF7AE
:101550007BFF002408E004EB0511564A505C012192
:10156000FFF72EFF601CC4B2082CF4DB701CC1B264
:101570003846FFF769FF002409E004EB0511083144
:101580004C4A505C0121FFF71BFF601CC4B2082CC1
:10159000F3DB12E031463846FFF756FF00240AE03D
:1015A00005EB4501444A02EB4101085D0121FFF7CB
:1015B00007FF601CC4B2062CF2DBBDE8F08710B553
:1015C0000246012000E050430B00A1F10104E1B20A
:1015D000F9D110BD2DE9FF5F074691461E460E9DCD
:1015E0004FF0000A002435E0301B401EC1B20A2033
:1015F000FFF7E5FFB9FBF0F00A21B0FBF1F201FBC8
:101600001208BAF1000F14D1701EA04211DDB8F11A
:10161000000F0CD1AB4605EBDB71491001FB0471E7
:10162000C8B22B4620220199FFF77CFF10E04FF053
:10163000010AAB4605EBDB71491001FB0471C8B22E
:1016400008F13001CAB22B460199FFF76BFF00BFCA
:10165000601CC4B2B442C7DBBDE8FF9F2DE9F04176
:1016600004460F461546984600260FE0AA5D4346FD
:1016700039462046FFF756FF04F10800C4B2782C23
:1016800002DD0024B81CC7B2701CC6B2A85D0028D9
:10169000ECD1BDE8F0812DE9F04180460E461546BB
:1016A000002731464046FFF7CFFE002411E000003E
:1016B000000C0140D4520008AC500008734A02EB01
:1016C0008511085D0121FFF77BFE781CC7B2601C05
:1016D000C4B2102CF2DB701CC1B24046FFF7B4FE5E
:1016E00000240CE06900491C684A02EB4111085DC6
:1016F0000121FFF765FE781CC7B2601CC4B2102C34
:10170000F0DBBDE8F0812DE9F05F06460F4690461C
:101710001C46DDF828A04FF0000BE11704EB5171D7
:10172000C910A4EBC10131B92046E11704EB517196
:10173000C1F3C70506E02046E11704EB5171C9105B
:10174000491CCDB23D4615E029463046FFF77CFEE8
:10175000B1460BE059460BF1010B1AF801000121CB
:10176000FFF72EFE09F1010000F0FF09C145F1DB92
:10177000681CC5B2A542E7DBBDE8F09F08B50121B2
:10178000082000F0BDFFC020ADF8000010208DF84B
:10179000030003208DF8020069463D4801F078FA05
:1017A000C0213B4801F021FB4FF44870FEF7FDFFDC
:1017B0000021AE20FFF704FE00210846FFF700FEDF
:1017C00000211020FFF7FCFD00214020FFF7F8FD6D
:1017D0000021B020FFF7F4FD00218120FFF7F0FD8C
:1017E0000021FF20FFF7ECFD0021A120FFF7E8FD1D
:1017F0000021A620FFF7E4FD0021A820FFF7E0FD6F
:1018000000213F20FFF7DCFD0021C820FFF7D8FDB5
:101810000021D320FFF7D4FD00210846FFF7D0FDBB
:101820000021D520FFF7CCFD00218020FFF7C8FD67
:101830000021D820FFF7C4FD00210520FFF7C0FDDF
:101840000021D920FFF7BCFD0021F120FFF7B8FDF2
:101850000021DA20FFF7B4FD00211220FFF7B0FDD0
:101860000021DB20FFF7ACFD00213020FFF7A8FDB1
:1018700000218D20FFF7A4FD00211420FFF7A0FD1B
:101880000021AF20FFF79CFD08BD000014010020DF
:10189000000C014017480068A8B91748406840BBD1
:1018A00015480068401C1449086008460068B0F5F7
:1018B000FA7F1EDB00200860886001204860C86055
:1018C0000020086115E00C480068401C0A490860C7
:1018D00008460068B0F5FA6F0BDD00200860084686
:1018E0004068012805D1886000204860C860012058
:1018F00008617047148121425C04002010B500206B
:10190000F44908604FF4FA70FEF74FFF0120F249E6
:10191000C1F8880110BD70B5002500240120EF49F1
:1019200008600020EE490870FFF7E8FF0022EDA1F3
:10193000ECA0FFF751F8002877D00022EAA1ECA034
:10194000FFF74AF80028F7D00022EDA1EDA0FFF73D
:1019500043F80028F0D00022EFA1F1A0FFF73CF8F7
:101960000028E9D0F3A2F4A1F648FFF767FBF64997
:1019700008600846006803F0D4F811280AD1122143
:10198000F24803F0B1F81122EF480168EF4803F084
:1019900092F800E009E1FFF74BFB0022D8A1ECA090
:1019A000FFF71AF80028C7D00022D5A1F5A0FFF74D
:1019B00013F80028C0D00020FE4908603FE000F086
:1019C000EDFAFD480078012832D10020FA4908706C
:1019D000D8A2FAA1DB48FFF731FBDB4908600846D3
:1019E000006820B32021F84803F07EF8D648F7A11C
:1019F0000268F54803F032F9FFF71AFBCDA2F4A113
:101A0000D048FFF71BFBD04908600846006868B162
:101A10004021F14803F068F8CB48ECA10268EE4899
:101A200003F01CF9FFF704FB0AE0BDE0BDE0BCE0F9
:101A3000E04800684EF66021884200D9B5E0BEE774
:101A400000BF0022AEA1E5A0FEF7C6FF002888D0A7
:101A5000C821E74803F048F8DF4BDB4AE5A1E4483A
:101A600003F0FCF80022EAA1E148FEF7B5FF0028E8
:101A700099D0012401209A4908700022E7A1EBA027
:101A8000FEF7AAFF00288ED0AAA2EDA1AD48FFF76D
:101A9000D5FAAD49086008460068002876D01521BF
:101AA000EA4803F021F8A848006803F03AF806462F
:101AB0003246A5480168E54802F0FDFFE44B0022EC
:101AC000E4A1A1480068FFF7E4FAE14800680428AF
:101AD00066D1DE4B9D4AE0A1C54803F0BFF8DC4962
:101AE00008600846E2A10268C14803F0B7F8D84987
:101AF00008600022E2A1BE48FEF76EFFD8B1C821FF
:101B0000BB4802F0F1FFD14B904AD3A1B84803F093
:101B1000A5F8CF490860B649ACA003F08FF80020C3
:101B2000A449086001E000F039FAA2480068B0F565
:101B3000FA6FF8D300E038E0C44B844AC6A1AC4841
:101B400003F08CF8C24908600846C9A10268A84899
:101B500003F084F8BE4908600022C9A1A448FEF73A
:101B60003BFFE0B1C821A24802F0BEFFB74B774A65
:101B7000B9A19F4803F072F8B54908609C4993A049
:101B800003F05CF800208B49086002E009E000F0F7
:101B900005FA88480068B0F5FA6FF8D302E004E06F
:101BA00003E002E0FFF744FA00BF002254A1B5A011
:101BB000FEF712FFFFF7A2FE0020B7490870E0B25F
:101BC00070BD70B500240025012044490860002044
:101BD00043490870FFF792FE002242A141A0FEF7A0
:101BE000FBFE002859D000223FA141A0FEF7F4FEE1
:101BF000002852D0002242A1A2A0FEF7EDFE00284C
:101C00004BD000223EA175A0FEF7E6FE002844D08E
:101C100000223BA1A1A0FEF7DFFE00283DD000205E
:101C2000644908601DE000F0B9F9634800780128B4
:101C300010D10020604908709DA1424802F05FFF6A
:101C400020B973A13F4802F05AFF18B1012023497F
:101C5000086007E05748006847F23051884200D9D1
:101C600000E0E0E700BF5348006847F23051884287
:101C700003D90020194908600FE001250120184907
:101C800008704C48006841F28831441801E000F0C7
:101C900085F948480068A042F9D3FFF72FFE0020DD
:101CA0007D490870E8B270BD10B5FFF727FE00222D
:101CB0000CA10CA0FEF790FE00220BA10CA0FEF7D9
:101CC0008BFE00220EA16FA0FEF786FE00220CA163
:101CD00042A0F5E08881214200802142B4012242E5
:101CE0001C0200202B2B2B00726561647900000020
:101CF00041542B524553544F52450D0A00000000E9
:101D00004F4B000041542B43574D4F44455F4445D2
:101D1000463D330D0A0000004D41435F43555200DC
:101D200041542B4349505354414D41435F43555215
:101D30003F0D0A00220000004D41435F4355523AD7
:101D4000220000009C03002004000020D804002092
:101D500041542B43575341505F4445463D227769D8
:101D600066695F383236365F62696E64222C2231D2
:101D700031323233333434222C31312C342C340D83
:101D80000A00000041542B43495053544152543DE2
:101D900022554450222C223139322E3136382E34FD
:101DA0002E32222C353535352C353535362C320D45
:101DB0000A00000018020020D4000020227373697A
:101DC00064223A22000000007804002025730000FD
:101DD00022707764223A22009804002041542B4359
:101DE000574155544F434F4E4E3D310D0A000000B0
:101DF000BC02002041542B43574A41505F444546A2
:101E00003D222573222C222573220D0A000000009A
:101E10005749464920474F542049500043495053A1
:101E200054415F4355523A697000000041542B43BE
:101E300049505354415F4355523F0D0A0000000082
:101E40004355523A69703A2200000000EA0400202B
:101E5000000000202E0000007B226D6163223A22E8
:101E60002573222C226970223A222573227D0000DC
:101E700041542B43495053454E443D25640D0A00BF
:101E80003E00000041542B43574D4F44455F4445AD
:101E9000463D310D0A0000001402002041542B433E
:101EA000575354415254534D4152543D330D0A003F
:101EB0005749464920434F4E4E4543544544000040
:101EC000FEF78AFDAFF21802AFF2CC1111A0FEF7B7
:101ED00083FDFFF713FD10BD10B59AB00024FFF786
:101EE0000DFD0022AFF20421AFF20820FEF774FDD1
:101EF000114B124A12A101A802F0B0FE19A2AFF2D2
:101F0000002101A8FEF768FD0446FFF7F7FC204614
:101F10001AB010BD41542B43574A41505F444546C7
:101F20003D227171717171222C2231313232333381
:101F30003434220D0A0000001200002008000020A6
:101F400041542B534156455452414E534C494E4BEC
:101F50003D312C222573222C25732C2254435022F0
:101F60000D0A0000414C524541445920434F4E4E0A
:101F7000454354454400000070B505460C4645F203
:101F8000555001F0E1FE284601F0E1FE204601F047
:101F9000E1FE01F0E2FE01F0E5FE70BD10B501F0DA
:101FA000DCFE10BD0EB50121084600F0B6FB4FF077
:101FB000804000F0BBFF0020ADF80600ADF8020045
:101FC0000A20ADF8040041F61F40ADF80000694654
:101FD0004FF0804001F07EF80121880701F0B0FE4B
:101FE0000121880701F0D2FB01221146900701F080
:101FF000E8FB0EBD10B50121880701F090FE012815
:102000007ED10121800701F09BFE45480068401CFD
:102010004349086043480068401C42490860424800
:102020000068401C404908604048007828B140489A
:102030000068401C3E49086002E000203C490860FE
:102040003C480068401C3B4908603B480068401C15
:10205000394908603948007888B139480068401C1F
:102060003749086008460068642822D900200860C3
:1020700034480068C0433449C1F8B40119E033481A
:102080000078012812D12E480068401C2C490860B5
:1020900008460068B0F57A7F0BD90020086029480F
:1020A0000068C0432849C1F8B40102E00020244977
:1020B00008602748406828B125484069401C2449E9
:1020C000486102E00020224948612148806828B127
:1020D0001F488069401C1E49886102E000201C499D
:1020E00088611C48006858B11B480068401C1A49A8
:1020F0000860084600681949096888420ED300E064
:102100000CE0002014490860124800681449086077
:1021100000201049086001201249087010BD00001D
:10212000B8000020E0000020E8000020B4000020FB
:10213000AC000020B0000020180200201402002093
:1021400024020020B401224200002242F0000020BC
:102150005C040020C4000020CC000020D00000203F
:10216000C8000020D40000200CB500200190009091
:102170006C48006840F480306A49086000BF6948D4
:10218000006800F4003000900198401C0190009815
:1021900018B90198B0F5A06FF1D16248006800F459
:1021A000003010B10120009001E000200090009864
:1021B000012843D15C48006840F010005A4908608B
:1021C0000846006820F0030008600846006840F0F8
:1021D0000200086053484068524948600846406819
:1021E00048600846406840F480604860084640689F
:1021F00020F47C1048600846406840F4E8104860CD
:102200000846006840F08070086000BF45480068DC
:1022100000F000700028F9D04248406820F0030028
:10222000404948600846406840F00200486000BFEE
:102230003C48406800F00C000828F9D10CBD10B5EE
:10224000FFF792FF10BD10B53648006840F001005E
:1022500034490860084640683449084031494860BC
:1022600008460068324908402E4908600846006860
:1022700020F4802008600846406820F4FE00486092
:102280004FF41F008860FFF7DAFF4FF00060294924
:10229000086010BD10B5002100200022214B5B68B2
:1022A00003F00C0121B1042906D0082928D107E048
:1022B000214B224C236027E01F4B204C236023E05E
:1022C000184B5B6803F47010164B5B6803F48032A4
:1022D000022303EB904022B9194B4343174C236070
:1022E0000DE0104B5B6803F4003323B1144B434300
:1022F000124C236003E0104B4343104C236003E077
:102300000D4B0E4C236000BF00BF064B5B68C3F350
:1023100003130C4CE15C094B1B68CB40074C23605A
:1023200010BD000000100240002002400000FFF835
:10233000FFFFF6FE08ED00E000127A002802002000
:1023400000093D002C02002031490143314A11604F
:10235000704770B5002100230F22C47804B32D4CC0
:10236000246804F4E064C4F5E064210AC1F10403C4
:10237000CA40447804FA03F18478144021430901E7
:10238000254C0678A155047804F01F050124AC40C3
:1023900005786D11AD0005F1E025C5F8004109E0B3
:1023A000047804F01F050124AC401C4D067876111A
:1023B00045F8264070BD1A4A0A400243154B1B1FC0
:1023C0001A60704739B1134A121D12680243114B4B
:1023D0001B1D1A6006E00F4A121D126882430D4B46
:1023E0001B1D1A607047042808D14FF0E0210969CD
:1023F00041F004014FF0E022116107E04FF0E021CD
:10240000096921F004014FF0E022116170470000DA
:102410000000FA050CED00E000E400E080E100E0DF
:1024200080FFFF1FDF48006840F00100DD490860C1
:1024300008464068DC490840DA49486008460068B8
:10244000DA490840D74908600846006820F480202F
:1024500008600846406820F4FE0048604FF41F0002
:1024600088607047CF49096821F48031CD4A1160F6
:102470001146096821F480211160B0F5803F03D036
:10248000B0F5802F0ED106E0C649096841F48031CD
:10249000C44A116007E0C349096841F4A021C14A58
:1024A000116000E000BF00BF704710B50146002278
:1024B000002300204A11012A02D1BA4C236806E009
:1024C000022A02D1B74C236A01E0B64C636A01F0DC
:1024D0001F02012494401C400CB1012000E00020A8
:1024E00010BD38B5002000900024002500BF312029
:1024F000FFF7DBFF05460098401C00900098B0F500
:10250000A06F01D0002DF2D03120FFF7CEFF08B12F
:10251000012400E00024204638BD01460020A14AE5
:10252000106820F0F80040EAC10010607047A04930
:1025300008607047024600209A4B586820F47C10CF
:1025400042EA01031843974B586070479849086660
:10255000704701460020934A506820F0030008436A
:10256000506070478F48406800F00C00704701468B
:1025700000208C4A506820F0F000084350607047FB
:1025800001460020874A506820F4E060084350600C
:10259000704701460020834A506820F4605040EAAA
:1025A000C1005060704729B17E4A527A02437D4B88
:1025B0005A7204E07B4A527A82437A4B5A727047CD
:1025C0007B49D8310860704701460020754A506841
:1025D00020F440400843506070470021714A203287
:1025E0001170704A82F82010012802D004280AD104
:1025F00004E001216B4A2032117005E00521694A8F
:102600002032117000E000BF00BF704769490860C8
:1026100070476449096A0143624A1162704765491B
:1026200044390860704730B500210022002400239F
:102630005C4D6D6805F00C0121B1042905D0082915
:1026400023D105E05C4D056022E05B4D05601FE095
:10265000544D6D6805F47012524D6D6805F4803468
:10266000022505EB92421CB9544D554305600BE021
:102670004C4D6D6805F400351DB1504D5543056056
:1026800002E04D4D5543056002E04B4D056000BF33
:1026900000BF444D6D6805F0F0010909484D6B5CC1
:1026A0000568DD4045603F4D6D6805F4E061090A4D
:1026B000434D6B5C4568DD4085603A4D6D6805F4BF
:1026C0006051C90A3E4D6B5C4568DD40C560354DC3
:1026D0006D6805F44041890B3A4D6B5CC568B5FBEC
:1026E000F3F5056130BD29B12E4A526902432D4BE5
:1026F0005A6104E02B4A526982432A4B5A6170475F
:1027000029B1284A92690243264B9A6104E0254A7E
:1027100092698243234B9A61704729B1214AD26959
:102720000243204BDA6104E01E4AD26982431D4B0A
:10273000DA61704729B11B4AD2680243194BDA604B
:1027400004E0184AD2688243164BDA60704729B118
:10275000144A12690243134B1A6104E0114A1269C8
:102760008243104B1A617047124940390860704724
:102770000F49C86470470B49C87170470948406ADF
:1027800040F0807007494862704701460020054AC2
:1027900092680A400AB1012000E000207047014918
:1027A00088727047001002400000FFF8FFFFF6FE3D
:1027B000000042428004424200127A0000093D00BB
:1027C0003C0200204C02002010B50446FB48844225
:1027D00009D101218803FFF7ADFF00214FF48040AC
:1027E000FFF7A8FF32E0F648844209D101214804EE
:1027F000FFF7ADFF00214FF40030FFF7A8FF25E001
:10280000F048844209D101218804FFF7A0FF00218C
:102810004FF48020FFF79BFF18E0EB48844209D17A
:102820000121C804FFF793FF00214FF40020FFF7B8
:102830008EFF0BE0E548844208D101210805FFF72F
:1028400086FF00214FF48010FFF781FF10BD2DE9B6
:10285000F04786B005460E460024A24600BFA146BA
:102860000027B08900B100BF2F462C8A4CF6FF70BC
:102870000440F08804432C82AC894EF6F3100440E7
:10288000B08831890843718908430443AC81AC8A1C
:102890004FF6FF400440B0890443AC8201A8FFF723
:1028A000C2FEC648874202D1DDF810A001E0DDF883
:1028B0000CA0A88900F4004040B10AEBCA0000EB6C
:1028C0000A1031684900B0FBF1F807E00AEBCA00D2
:1028D00000EB0A1031688900B0FBF1F86420B8FB06
:1028E000F0F004012009642101FB1089A88900F49B
:1028F000004040B1322000EBC900B0FBF1F000F025
:102900000700044308E0322000EB09106421B0FB0B
:10291000F1F000F00F0004432C8106B0BDE8F08711
:102920004FF41651016000218180C18001810C218A
:10293000418100218181704710B502460020108A34
:102940004FF2FF0318400B884C8823438C882343A5
:10295000CC8823431843108210BD002101804180A0
:102960008180C180704721B1828942F40052828106
:1029700004E082894DF6FF731A4082817047F0B5FA
:102980000346002400260025002040F66A17B942BD
:1029900000D100BF1846C1F3421401F01F06012701
:1029A00007FA06F5012C01D10C3004E0022C01D10C
:1029B000103000E014301AB107682F43076002E0BE
:1029C0000768AF430760F0BD1AB1838A0B43838267
:1029D00002E0838A8B4383827047028A4FF6F0734A
:1029E0001A400282028A0A430282704782894FF2A9
:1029F000FF731A40828182890A438281704721B124
:102A0000828942F00202828104E082894FF6FD73DE
:102A10001A4082817047028A4FF6DF731A400282A1
:102A2000028A0A430282704721B1028A42F480423C
:102A3000028204E0028A4BF6FF731A40028270475A
:102A4000C1F308028280704701468888C0F30800FD
:102A50007047818941F0010181817047028BD2B2B8
:102A60000283028B42EA012202837047028B02F446
:102A70007F420283028B0A430283704721B1828A1C
:102A800042F02002828204E0828A4FF6DF731A400D
:102A90008282704721B1828A42F01002828204E071
:102AA000828A4FF6EF731A408282704721B1828A80
:102AB00042F00802828204E0828A4FF6F7731A40DD
:102AC0008282704721B1828942F40042828103E010
:102AD0008289C2F30E028281704721B1828A42F458
:102AE0000062828204E0828A4FF2FF731A4082827F
:102AF0007047828A4FF6FB731A408282828A0A43A9
:102B00008282704721B1828A42F00202828204E00E
:102B1000828A4FF6FD731A40828270470246002077
:102B2000B1F5007F00D100BF13880B400BB101202D
:102B300000E00020704701F40072B2F5007F00D180
:102B400000BFCA430280704770B5024600240023CC
:102B50000025002040F66A16B14200D100BFC1F343
:102B6000421501F01F03012606FA03F3012D02D1DD
:102B70009689334006E0022D02D1168A334001E0E7
:102B8000968A33400C12012606FA04F41688344063
:102B900013B10CB1012000E0002070BD10B500227F
:102BA000002340F66A14A14200D100BF0A1201249A
:102BB0009440A3B2DC43048010BD00000038014003
:102BC0000044004000480040004C004000500040DD
:102BD00010B50446CC48844208D101210420FFF7F7
:102BE000A9FD00210420FFF7A5FD46E0C748844267
:102BF00008D101210820FFF79DFD00210820FFF7E3
:102C000099FD3AE0C248844208D101211020FFF723
:102C100091FD00211020FFF78DFD2EE0BD4884427C
:102C200008D101212020FFF785FD00212020FFF79A
:102C300081FD22E0B848844208D101214020FFF7FD
:102C400079FD00214020FFF775FD16E0B34884426E
:102C500008D101218020FFF76DFD00218020FFF7C2
:102C600069FD0AE0AE48844207D101218015FFF7D3
:102C700061FD0021A015FFF75DFD10BD10B501211C
:102C80000846FFF757FD00210120FFF753FD10BD57
:102C90002DE9F041024600250026002000230024F3
:102CA000002791F803C00CF00F0591F803C00CF059
:102CB000100CBCF1000F03D091F802C04CEA0505DE
:102CC00091F800C0BCF1000F31D0146800202BE057
:102CD0004FF0010C0CFA00F3B1F800C00CEA030647
:102CE0009E4220D183004FF00F0C0CFA03F7BC4337
:102CF00005FA03FC4CEA040491F803C0BCF1280F68
:102D000006D14FF0010C0CFA00FCC2F814C00AE026
:102D100091F803C0BCF1480F05D14FF0010C0CFA3B
:102D200000FCC2F810C0401C0828D1D31460B1F8D0
:102D300000C0BCF1FF0F34DD546800202EE000F12C
:102D4000080C4FF0010808FA0CF3B1F800C00CEAC7
:102D500003069E4221D183004FF00F0C0CFA03F7BB
:102D6000BC4305FA03FC4CEA040491F803C0BCF12F
:102D7000280F05D100F1080C08FA0CF8C2F81480ED
:102D800091F803C0BCF1480F07D100F1080C4FF0D7
:102D9000010808FA0CF8C2F81080401C0828CED3AD
:102DA0005460BDE8F0814FF6FF710180022181700F
:102DB0000421C17070470246002093680B400BB19C
:102DC000012000E0002070470146886880B270470B
:102DD00002460020D3680B400BB1012000E0002028
:102DE00070470146C86880B2704701617047416111
:102DF00070470AB1016100E041617047C1607047EE
:102E00004FF480320A438261816182618269826902
:102E1000704702460020434B18684FF680731840F5
:102E200040EA021008433F4B186070473E49C861B2
:102E30007047F0B50A46002300240021002500F069
:102E40000046B6F1004F02D1364EF16901E0354E31
:102E50007168C0F3034583B200F44016B6F5401F15
:102E600008D121F070612F4E766826F070662D4FE4
:102E70007E6012E000F48016B6F5801F06D10326AE
:102E800006FA05F4A14341F0706106E0460D3601F3
:102E900003FA06F6B14341F0706122B1460D3601E6
:102EA00003FA06F6314300F00046B6F1004F02D1B6
:102EB0001C4EF16101E01B4E7160F0BD30B5002287
:102EC0008B071C0F0F2303FA04F2164B08338C10E8
:102ED00053F824309343134C08348D1044F82530B4
:102EE00023468C1053F824308C07240F00FA04F486
:102EF00023430C4C08348D1044F8253030BD0A496A
:102F0000DC3108607047000000080140000C0140FF
:102F1000001001400014014000180140001C014055
:102F200000200140000001400000204210B504468E
:102F3000FE48844208D10121C014FFF7FBFB0021A9
:102F4000E014FFF7F7FBC4E0B4F1804F08D1012192
:102F50000846FFF7FCFB00210120FFF7F8FBB8E073
:102F6000F348844208D101210220FFF7F0FB002141
:102F70000220FFF7ECFBACE0EE48844208D10121CF
:102F80000420FFF7E4FB00210420FFF7E0FBA0E0B2
:102F9000E948844208D101210820FFF7D8FB00212D
:102FA0000820FFF7D4FB94E0E448844208D10121D3
:102FB0001020FFF7CCFB00211020FFF7C8FB88E0B2
:102FC000DF48844208D101212020FFF7C0FB002107
:102FD0002020FFF7BCFB7CE0DA48844208D10121C5
:102FE0004014FFF7A7FB00216014FFF7A3FB70E07C
:102FF000D548844209D10121C804FFF79BFB002179
:103000004FF40020FFF796FB63E0D048844209D1DB
:1030100001210805FFF78EFB00214FF48010FFF718
:1030200089FB56E0CA48844209D101214805FFF7CF
:1030300081FB00214FF40010FFF77CFB49E0C548FD
:10304000844208D101214020FFF781FB002140206C
:10305000FFF77DFB3DE0C048844208D1012180207C
:10306000FFF775FB00218020FFF771FB31E0BB48C3
:10307000844208D101218015FFF769FB0021A015CA
:10308000FFF765FB25E0B648844209D10121080419
:10309000FFF750FB00214FF48030FFF74BFB18E0A7
:1030A000B048844209D101214804FFF743FB0021C5
:1030B0004FF40030FFF73EFB0BE0AB48844208D1F1
:1030C00001218804FFF736FB00214FF48020FFF731
:1030D00031FB10BD00220288944B98420ED0994BD0
:1030E00098420BD0B0F1804F08D0914B984205D058
:1030F000904B984202D0904B984204D14FF68F7378
:103100001A404B881A438D4B984207D08C4B9842FB
:1031100004D04FF6FF431A40CB881A4302808B88B5
:1031200083850B880385814B98420BD0854B984251
:1031300008D08B4B984205D08A4B984202D08A4BDC
:10314000984201D10B7A038601238382704770B5C0
:10315000002400220023058C4FF6FE7635400584BE
:10316000028C8388048B4FF68F752C40B51E2C4043
:103170000D882C43751E2A400D892A434D882A4309
:103180006A4DA8420BD06F4DA84208D0744DA8429A
:1031900005D0744DA84202D0734DA84213D14FF60A
:1031A000F7752A404D892A434FF6FB752A408D88D2
:1031B0002A434FF6FF652B404FF6FF552B408D8974
:1031C0002B43CD892B4383800483CD88858602845D
:1031D00070BD70B5002400220023058C4FF6EF76F9
:1031E00035400584028C8388048B48F6FF752C409B
:1031F0004FF6FF452C400D884FF6FF7606EA052571
:103200002C434FF6DF752A400D8906EA05152A433F
:103210004D8806EA05152A43444DA84202D0494D7F
:10322000A8421DD14FF67F752A404D894FF6FF7693
:1032300006EA05152A434FF6BF752A408D8806EA2F
:1032400005152A434FF6FF352B404FF2FF752B40F3
:103250008D8906EA85052B43CD8906EA85052B4332
:1032600083800483CD880587028470BD70B50024F7
:1032700000220023058C4FF6FF6635400584028C42
:103280008388848B4FF68F752C404FF6FC752C404D
:103290000D882C434FF6FF552A400D894FF6FF76D7
:1032A00006EA05252A434D8806EA05252A431F4DCF
:1032B000A84202D0234DA8421DD14FF2FF752A40EB
:1032C0004D894FF6FF7606EA05252A434FF6FF356E
:1032D0002A408D8806EA05252A434EF6FF752B40C5
:1032E0004DF6FF752B408D8906EA05152B43CD89D8
:1032F00006EA05152B4383808483CD888587028465
:1033000070BD70B5002200230024058C4EF6FF76B8
:1033100035400584038C8488828B48F6FF752A40EB
:103320004FF6FF452A400D8820E00000002C0140A8
:103330000004004000080040000C00400010004065
:103340000014004000340140004C01400050014096
:103350000054014000180040001C004000200040C4
:103360000040014000440140004801404FF6FF7614
:1033700006EA05252A434DF6FF752B400D8906EA1E
:1033800005352B434D8806EA05352B43FA4DA842F7
:1033900002D0FA4DA84208D14BF6FF752C408D891A
:1033A0004FF6FF7606EA85152C4384808283CD880C
:1033B000A0F84050038470BD828B4FF2FF331A4057
:1033C0008283828B4FF6FF7303EA01231A438283C1
:1033D0007047F0B50C461546002200210026078CE8
:1033E0004EF6FF7C07EA0C070784828B018C4FF6B0
:1033F000FF7707EA043640F6FF473A404FF6FF777B
:1034000007EA05273A434FF6FF7707EA03373A43BF
:10341000D94FB8420ED0D94FB8420BD0B0F1804F3F
:1034200008D0D74FB84205D0D64FB84202D0D64FB9
:10343000B84206D14DF6FF77394046F480573943FC
:1034400005E047F6FF57394044F4805739438283FB
:103450000184F0BD828B4FF6F3731A408283828B16
:103460000A4382837047F0B50C46154600220021BE
:103470000026078C4FF6FF6C07EA0C070784828B47
:10348000018C4FF6FF7707EA04264FF60C773A4097
:103490004FF6FF7707EA03172F433A43B64FB84278
:1034A0000ED0B64FB8420BD0B0F1804F08D0B44F19
:1034B000B84205D0B34FB84202D0B34FB84206D19C
:1034C0004FF6FF57394046F48077394305E04FF215
:1034D000FF57394044F48077394382830184F0BD3B
:1034E000028B4FF2FF331A400283028B4FF6FF73B9
:1034F00003EA01231A4302837047F0B50C461546D0
:10350000002200210026078C4FF6EF7C07EA0C070B
:103510000784028B018C4FF6FF7707EA041640F60A
:10352000FF473A404FF6FF7707EA03373A434FF633
:10353000FF7707EA05273A438F4FB8420ED08F4FE7
:10354000B8420BD0B0F1804F08D08D4FB84205D0B3
:103550008C4FB84202D08C4FB84206D14FF6DF777D
:10356000394046F01007394305E04FF65F773940A0
:1035700044F01007394302830184F0BD028B4FF6FB
:10358000F3731A400283028B0A4302837047F0B53B
:103590000C46154600220021068C4FF6FE773E4071
:1035A0000684028B018C4FF60C7632407E1C06EAB4
:1035B00003162E433243704EB0420ED06F4EB042CF
:1035C0000BD0B0F1804F08D06D4EB04205D06D4E9B
:1035D000B04202D06C4EB04206D14FF6FD7631407B
:1035E00044F00106314305E04FF6F576314044F0F2
:1035F0000106314302830184F0BD70B505460C46D7
:103600005D4885420ED05D4885420BD0B5F1804FB4
:1036100008D05B48854205D05A48854202D05A48B6
:10362000854200D100E000BF208850B92389A288DC
:1036300061882846FFF7ABFFE1882846FFF79EFF29
:1036400025E0208804280AD12389A2886188284699
:10365000FFF753FFE1882846FFF742FF17E0208875
:1036600008280AD12389A28861882846FFF7FBFE33
:10367000E1882846FFF7EEFE09E02389A2886188E9
:103680002846FFF7A6FEE1882846FFF795FE70BDA5
:103690002DE9F04105460C4600260127608808B94F
:1036A000022600E00026A088012801D1022700E0C0
:1036B00001272088A0B92389A28861882846FFF7BE
:1036C00066FFE1882846FFF759FF23893A463146CD
:1036D0002846FFF712FFE1882846FFF701FF13E0B5
:1036E0002389A28861882846FFF707FFE1882846DA
:1036F000FFF7F6FE23893A4631462846FFF747FF93
:10370000E1882846FFF73AFFBDE8F0810A884B8838
:103710001A438B881A43CB881A430B891A434B8967
:103720001A438B891A43A0F8442070474FF6FF7163
:10373000818000210180C180418001727047002199
:10374000018041808180C180018141818181C1816D
:103750007047002101804180012181800021C180CA
:10376000018170470021018041808180C1800181F9
:103770004181818170470000002C014000340140EC
:103780000004004000080040000C004021B1028805
:1037900042F00102028004E002884FF6FE731A40F4
:1037A0000280704731B1B0F8442042F40042A0F8E2
:1037B000442005E0B0F84420C2F30E02A0F84420F3
:1037C00070471AB183890B43838102E083898B435D
:1037D000838170478182704741EA0203A0F8483034
:1037E00070471AB183890B43838102E083898B433D
:1037F0008381704701894FF6F8721140018170474B
:103800000A46002101894FF68F7319401143018147
:10381000704730B504460D4629462046FFF7F0FFB5
:10382000208940F00700208130BD2DE9F041044699
:103830000D4616461F46602D06D13B4601223146F5
:103840002046FFF75AFE05E03B460122314620465E
:10385000FFF79DFE29462046FFF7D2FF208940F062
:1038600007002081BDE8F08130B50C4600210189B8
:10387000C9B24FF6FF7505EA0325154325432943D1
:10388000018130BD2DE9F04105460E4617469846A8
:10389000002443463A4631462846FFF7E5FF2C8987
:1038A0004FF6F870044044F007044FF68F70044060
:1038B00044F070042C81BDE8F081F0B504460D465B
:1038C00016461F463B46324629462046FFF7CCFFA8
:1038D000208940F480402081F0BD018582827047BC
:1038E0000A46002101884FF68F7319401143018069
:1038F0007047F0B50C4615461E46002100220023F5
:103900000189028B038C4FF6F877394021434FF63B
:10391000FC473A4040F201173A434FF6DD773B400F
:103920004FF6FF7707EA06172F433B4301810283D7
:103930000384F0BD0A460021018B4FF68F731940B6
:103940001143018370470A460021018B48F6FF733B
:1039500019404FF6FF7303EA0223194301837047AE
:103960000A460021818B4FF68F73194011438183E2
:1039700070470A460021818B48F6FF7319404FF6C5
:10398000FF7303EA022319438183704721B1028840
:1039900042F08002028004E002884FF67F731A40F2
:1039A0000280704721B1828842F00402828004E0E4
:1039B00082884FF6FB731A408280704721B182885B
:1039C00042F00802828004E082884FF6F7731A40C2
:1039D0008280704721B1828842F00102828004E037
:1039E00082884FF6FE731A40828070470A46002193
:1039F000018B4FF6F77319401143018370470A4654
:103A00000021018B4FF2FF7319404FF6FF7303EA59
:103A100002231943018370470A460021818B4FF628
:103A2000F77319401143818370470A460021818B47
:103A30004FF2FF7319404FF6FF7303EA0223194355
:103A4000818370470A460021018B4FF6FB731940B2
:103A50001143018370470A460021018B4FF6FF3363
:103A600019404FF6FF7303EA02231943018370479D
:103A70000A460021818B4FF6FB7319401143818365
:103A800070470A460021818B4FF6FF3319404FF6ED
:103A9000FF7303EA02231943818370470A4600211A
:103AA000018B4FF67F7319401143018370470A461B
:103AB0000021018BC1F30E014FF6FF7303EA0223CD
:103AC0001943018370470A460021818B4FF67F73AB
:103AD00019401143818370470A460021818BC1F34D
:103AE0000E014FF6FF7303EA0223194381837047E7
:103AF0000A460021018C4FF6FD73194011430184E1
:103B000070470A460021018C4FF6F77319401143A4
:103B1000018470470A460021018C4FF6DF7319407B
:103B20004FF6FF7303EA02131943018470470A46F4
:103B30000021018C4FF67F7319404FF6FF7303EAA3
:103B400002131943018470470A460021018C4FF685
:103B5000FF5319404FF6FF7303EA02231943018410
:103B600070470A460021018C4FF2FF7319404FF64F
:103B7000FF7303EA02231943018470470A460021B8
:103B8000018C4DF6FF7319404FF6FF7303EA0233C1
:103B900019430184704730B5002301248C40A3B23F
:103BA000048C9C430484048C02FA01F5ADB22C43CE
:103BB000048430BD30B5002304248C40A3B2048CAF
:103BC0009C430484048C02FA01F5ADB22C430484B6
:103BD00030BD70B50346002000241846183001257A
:103BE0008D40ACB21D8CA5431D8409B1082909D1B3
:103BF00000EB6100056825F0700505600568154358
:103C000005600EE00D1FC5F34E052844056825F438
:103C1000E045056005684FF6FF7606EA0226354363
:103C2000056070BD21B1028842F00202028004E00A
:103C300002884FF6FD731A400280704721B1028856
:103C400042F00402028004E002884FF6FB731A403F
:103C50000280704721B1828842F08002828004E0B5
:103C600082884FF67F731A408280704702884FF631
:103C7000F7731A40028002880A43028070478288E4
:103C80004FF68F731A40828082880A438280704781
:103C900002894FF6F8731A40028102890A430281B1
:103CA000704702894FF67F731A40028102890A43E6
:103CB0000281704781847047818570478186704793
:103CC0000187704781877047A0F8401070470288CD
:103CD0004FF6FF431A40028002880A430280704771
:103CE0000146888E70470146088F70470146888FCD
:103CF00070470146B1F8400070470146888C704714
:103D00000146088D704702460020138A0B400BB114
:103D1000012000E000207047CA430282704730B59E
:103D20000246002000230024158A05EA0103958934
:103D300005EA010413B10CB1012000E0002030BD00
:103D4000CA430282704700000E49086070470D495F
:103D5000486070470B49886070474AF6AA200949B5
:103D6000086070474CF6CC40064908607047014631
:103D70000020044AD2680A400AB1012000E0002075
:103D80007047000000300040064880470648004762
:103D9000FEE7FEE7FEE7FEE7FEE7FEE7FEE7FEE7FB
:103DA000FEE7FEE7472200083101000870B505462E
:103DB0000C468748D0F81402864A811822462846C5
:103DC00000F079FE8248D0F8140220448049C1F8FE
:103DD0001402204670BD2DE9F84F06460C461546E4
:103DE0001F46DDE90C9BDDE90AA87B4846613046A9
:103DF00000F097FE7849086108468464204600F088
:103E000090FE7549486408464565284600F089FEDD
:103E1000714908650846078301208876BAF1000FCA
:103E200018D0C8760846C0F83890484600F079FEA9
:103E300001466948416380F83DB067490E9881F8B2
:103E40003C000846C0F82C80404600F06AFE01465F
:103E500061488162604A4FF4FA71604800F0FDF8F1
:103E600000900098BDE8F88F1CB500240020584948
:103E7000C1F81402AFF2CB024FF4FA71544820306B
:103E800000F0C9FB022810D14FF4FA73504A2032D7
:103E9000694601A800F08CF9012802D19DF80000C4
:103EA00010B19DF8004000E0002420461CBD2DE923
:103EB000FE4F07460E4614469846DDF83090032C18
:103EC00002DD0020BDE8FE8F4548C460002505E006
:103ED00056F82500424941F825006D1CA542F7DB44
:103EE0003F48A0F810904B4642464FF4FA713B48C9
:103EF000CDE90176009400F03DFD82465046E1E7B1
:103F000030B587B0002500203149C1F81402AFF266
:103F100063124FF4FA712E48203000F07CFB092820
:103F200028D14FF4FA712A48203002AB05AACDE916
:103F30000001032106A800F075FD2948C068059915
:103F4000884215D12648008ABDF8181088420FD142
:103F5000002409E002A850F82400214951F8241057
:103F6000884200D00325641C05988442F2DB02E0FD
:103F7000022500E00125E8B207B030BD0FB470B5EE
:103F800088B0DDE91245CDE905450CA807C802AEA9
:103F900007C6BDF846009DF84410CDE900109DF815
:103FA0003C204FF4FA710D48109B00F016FC0646B9
:103FB000304608B070BC5DF814FB10B500244FF417
:103FC000FA71064800F05EF90446204610BD000074
:103FD000F40600209C030020500200200005002071
:103FE0000C09002070B504460025207A032801D171
:103FF0000C2503E0207A042800D10A25D4E9041214
:10400000E06800F0DBFA801C0544E07E68B1D4E98A
:104010000A12606A00F0D2FA861CD4E90D12206BF5
:1040200000F0CCFA3044801C0544206C08B9A06C28
:1040300030B1D4E91112206C00F0C0FA801C0544A4
:10404000E06C08B9606D30B1D4E91412E06C00F096
:10405000B5FA801C0544284670BD2DE9FE4305468F
:104060000E461446029500200190009000274FF064
:10407000FF382046FFF7B6FF0746814600F0E5F916
:10408000B04202DD6FF001088FE000208DF80400DF
:10409000019820F0F000103001909DF8041002A863
:1040A00000F015FA3946029800F088F902990844A0
:1040B0000290207A042808D177A102A800F025FAFE
:1040C000042102A800F003FA07E075A102A800F09D
:1040D0001CFA032102A800F0FAF900208DF8000074
:1040E000A17E009861F341000090E07E08B10121BB
:1040F00000E00021009861F3820000900098C0F376
:10410000800058B194F83D10009861F3C40000900D
:1041100094F83C10009861F345100090206C08B9A9
:10412000A06C20B1009820F0800080300090E06CFE
:1041300008B9606D20B1009820F040004030009038
:104140009DF8001002A800F0C2F9218B02A800F02F
:10415000C4F902A8D4E90423E16800F0F3F9E07E91
:1041600058B102A8D4E90A23616A00F0EBF902A869
:10417000D4E90D23216B00F0E5F90098C0F3C010DD
:1041800028B102A8D4E91123216C00F0DBF90098D2
:10419000C0F3801028B102A8D4E91423E16C00F028
:1041A000D1F90298A0EB050800BF4046BDE8FE83A8
:1041B0002DE9FF4704460D46164699460020039018
:1041C000029600278046009002A800F079F98DF849
:1041D0000C000398C0F30310022800D01FE001A9CF
:1041E000029800F055F98046029908440290DDE9F2
:1041F000011047180298381A022800DA0FE002A8C6
:1042000000F05EF98DF80000009800F001002070C9
:1042100002A800F055F928704FF0010800BF404691
:1042200004B0BDE8F0872DE9FC4104460D46164672
:1042300000200190471E0094022D01DA871E15E030
:1042400000208DF80400019866F3071001909DF896
:104250000410684600F03BF90021009800F0AEF829
:104260000099084400900098071B00BF3846BDE83D
:10427000FC8170B504460D460E2229462046FFF704
:10428000D2FF70BD70B504460D460C22294620466B
:10429000FFF7C9FF70BD00004D51545400000000ED
:1042A0004D514973647000002DE9FF5F06460C46CE
:1042B00017469846DDE90FABDDF8389000200390F3
:1042C00011980290002500200190009002A800F0B3
:1042D000F7F88DF80C000398C0F30310032800D002
:1042E00032E00398C0F3C00030700398C0F341007F
:1042F0002060039800F0010038706946029800F0D1
:10430000C7F8019002990844029000990298451854
:104310002A4602A9484600F034F910B10298281A3A
:1043200000D511E02068002804DD02A800F0BBF8E9
:10433000A8F800000298281ACBF800000298CAF8E2
:1043400000000120019000BF019804B0BDE8F09F7B
:104350002DE9FE4F04460D4616461F46DDF830A0F7
:104360000020029001978046814601A800F0A8F83D
:104370008DF808000298C0F3C00028700298C0F3BE
:10438000031020706946019800F082F88146019977
:1043900008440190DDE9001000EB01080198A8EB4A
:1043A0000000022800DA06E001A800F07CF8308066
:1043B0004FF0010900BF4846BDE8FE8F30B5024608
:1043C000002300BF0846CD1701EB5565ED11A1EBA9
:1043D000C515ECB2CD1701EB5565E911002901DDDA
:1043E00044F0800418465B1C14540029EADC18468B
:1043F00030BD2DE9F84305460C4601260027002074
:10440000206000BF4FF0FF38781C0746042801DD0C
:1044100000BF17E001216846A8478046B8F1010FA8
:1044200000D00FE09DF8001001F07F01206801FB33
:1044300006002060F6019DF8000000F080000028D2
:10444000E0D100BF3846BDE8F883401C802801DA7F
:10445000401C0AE0B0F5804F01DA801C05E0D44929
:10446000884201DAC01C00E0001D704710B502460A
:10447000002309E0CF48006800781070CD4800683C
:10448000401CCC4C20605B1C8B42F3DB084610BD0B
:1044900070B504460D46C74804602946AFF23300A4
:1044A000FFF7A7FF70BD30B501460A68537814784E
:1044B0004FF4807505FB04300B689B1C0B6030BD0E
:1044C00001460A6810780A68521C0A607047026840
:1044D00011700268521C0260704710B50A46CB1773
:1044E00001EB13631B0A046823700268521C02600C
:1044F0000A46CB1701EB13631B12A1EB03230468DD
:1045000023700268521C026010BD70B504460E464E
:10451000304600F006FB054629462046FFF7DDFF42
:104520002A463146206800F0C6FA206828442060F8
:1045300070BD10B501464A780B784FF4807404FBC7
:10454000032010BD1FB50446029800280DDD20464B
:104550000299FFF7C2FFDDE90221206800F0ABFA03
:1045600020680299084420600AE0019820B12046A2
:104570000199FFF7CAFF03E000212046FFF7ADFFD6
:104580001FBDF0B505460C46164600272068301AB8
:1045900001280FDD2046FFF786FF68602068696804
:1045A0000844B04206D82168A960206869680844B8
:1045B00020600127002028603846F0BD37B5002470
:1045C000009820B1009800F0ACFA044600E0019C8D
:1045D00020463EBD2DE9F04104460E460027B84670
:1045E000206828B12568206800F09BFA074601E0A2
:1045F000A5686768304600F094FA8046474508D1C0
:104600003A463146284600F093FA10B90120BDE839
:10461000F0810020FBE72DE9FC4104460F461546DA
:104620004FF0FF3800200190002600900121204625
:10463000A847012800D01EE0012669462846FFF75A
:10464000D8FE601C0099FFF7B9FE0644009830447C
:10465000B84200DD0FE0009830B1A0190099A847DA
:104660000099884200D006E020788DF80400019877
:10467000C0F3031800BF4046BDE8FC81F8B504460E
:104680004FF0FF36206918B90120A0600020E060DB
:1046900000BF2069042800DB22E001226946D4E93A
:1046A000003098470546401C00B919E00DB90026B6
:1046B00016E02069401C20619DF8001001F07F0188
:1046C000D4E9022001FB0200E060A068C001A06004
:1046D0009DF8000000F080000028DAD1266900BFB4
:1046E0003046F8BD2DE9F84306460F4614464FF014
:1046F000FF3800200090207D30B1012817D002281B
:104700002FD00020207500BF01223146D4E90030AF
:1047100098470546401C00B946E015B90020BDE8A1
:10472000F88300202061207D401C207500BF2046BA
:10473000FFF7A4FF0546401C00B935E00DB9002085
:10474000EDE7701CE168FFF739FE401C2061D4E9F9
:1047500003010844B84200DD26E0207D401C20759E
:1047600000BFE068B8B1D4E9032C0CEB0601D4E932
:10477000003098470546401C00B915E00DB90020EF
:10478000CDE7E068401BE060206928442061E068D4
:1047900008B10020C3E730788DF800000098C0F31E
:1047A000031800BF00BF00BF002020754046B6E7D9
:1047B000FFFF1F00A80200207FB50546089E0024C9
:1047C00001A807C8FFF7FAFE801C30440444002DFE
:1047D00000DDA41C204604B070BD2DE9F04F87B069
:1047E00005460F4690461C46DDE915B6DDE9109AF0
:1047F000069500200590049003900096204612A98B
:104800000EC9FFF7D9FF04900290FFF71EFEB842D1
:1048100003DD6FF00100039033E0059820F0F00015
:1048200030300590059868F3C3000590059864F34F
:1048300042000590059869F3000005909DF814105A
:1048400006A8FFF744FE04990698FFF7B7FD0699FE
:104850000844069006A812A90EC9FFF773FE002CA3
:1048600003DD514606A8FFF738FE32465946069842
:1048700000F021F90698304406900698401B0390FA
:1048800000BF039807B0BDE8F08F2DE9FC47044650
:104890000E4615461F46DDF828800020019081460F
:1048A0000094042E02DA6FF0010924E0019865F308
:1048B00007100190019867F3C3000190062D01D104
:1048C000012100E00021019861F3420001909DF870
:1048D00004106846FFF7FBFD02210098FFF76EFD0C
:1048E00000990844009041466846FFF7F6FD00989D
:1048F000A0EB040900BF4846BDE8FC87F8B50546B3
:104900000E46144600230422314628460094FFF741
:10491000BCFFF8BDF8B506460F4614461D462346B3
:104920000622394630460095FFF7AFFFF8BDF8B5CF
:1049300005460E46144600230722314628460094B9
:10494000FFF7A3FFF8BD2DE9F04105460E4602270B
:1049500000240AE004EB440006EB800393E8070020
:10496000FFF72CFEC01C0744641CAC42F2DB384647
:10497000BDE8F0812DE9FF5F05460E4617469846D3
:10498000DDE90E9A0395002002900190009000242A
:1049900051464846FFF7D7FF83460190FFF755FD84
:1049A000B04202DDA01E009038E000208DF8080023
:1049B000029820F0F00080300290029867F3C30064
:1049C0000290029820F00600801C02909DF80810CA
:1049D00003A8FFF77CFD01990398FFF7EFFC03990B
:1049E00008440390414603A8FFF777FD00240FE039
:1049F00004EB44000AEB800C03A89CE80E00FFF7D0
:104A0000A1FD109810F8241003A8FFF760FD641CA6
:104A10004C45EDDB0398401B009000BF009804B0AC
:104A2000BDE8F09F2DE9FE4F05460E4614461F4691
:104A3000DDE90C9B00200290CDF804908046824670
:104A400001A8FFF73DFD8DF808000298C0F30310A0
:104A5000092800D02CE069460198FFF719FD82462D
:104A6000019908440190DDE9001000EB010801986C
:104A7000A8EB0000022800DA1AE001A8FFF713FDF6
:104A80002880002020600DE02068B04202DD4FF059
:104A9000FF3A0DE001A8FFF713FD2268511C2160C9
:104AA00047F8220001984045EED34FF0010A00BFBD
:104AB0005046BDE8FE8F40EA01039B0703D009E0A2
:104AC00008C9121F08C0042AFAD203E011F8013BFA
:104AD00000F8013B521EF9D27047D2B201E000F853
:104AE000012B491EFBD270470022F6E710B5134692
:104AF0000A4604461946FFF7F0FF204610BD30B5C0
:104B000005462A460B4612F8010B13F8014B08B173
:104B1000A042F8D01CB1002802D06D1CF1E7284655
:104B200030BD421C10F8011B0029FBD1801A7047D0
:104B300030B505460020034600E05B1C934205D2D9
:104B4000EC5CC85C201A01D1002CF6D130BD00000D
:104B500070B50F4D00B92868002412E00A4602E043
:104B60009E4203D0521C1378002BF9D1DAB22243B3
:104B700005D02BB124B1002100F8011B04E004464C
:104B8000401C0678002EE9D12860204670BD000048
:104B9000AC02002030B50B46014600202022012443
:104BA00009E021FA02F59D4205D303FA02F5491BFB
:104BB00004FA02F52844151EA2F10102F1DC30BD11
:104BC000064C074D06E0E06840F0010394E807005A
:104BD00098471034AC42F6D3FBF7AEFAC45800083D
:104BE000E458000870B58C1810F8015B15F0070345
:104BF00001D110F8013B2A1106D110F8012B03E076
:104C000010F8016B01F8016B5B1EF9D12B0705D47D
:104C10000023521E0DD401F8013BFAE710F8013BC6
:104C2000CB1A921C03E013F8015B01F8015B521EE2
:104C3000F9D5A142D8D3002070BD00000FB4054BB8
:104C400010B503A9044A029800F02CF810BC5DF8D6
:104C500014FB000009090008B00200200FB4084B43
:104C600010B504A902AA039800F01CF8044602A992
:104C7000002000F0B8F9204610BC5DF814FB0000DD
:104C8000E74F000802E008C8121F08C1002AFAD145
:104C900070477047002001E001C1121F002AFBD1BC
:104CA000704700002DE9FF4F8BB08846054600266F
:104CB00006E025280BD0DDE90D1290476D1C761C0F
:104CC00028780028F5D10FB03046BDE8F08F0024D9
:104CD000A146A2460122AE4900E0044315F8013F77
:104CE000203B02FA03F00842F7D128782A2810D096
:104CF0006FF02F022878A0F13001092915D809EBAF
:104D0000890102EB410144F0020400EB01096D1C32
:104D1000F0E758F8041B5FEA010903D544F4005496
:104D2000C9F1000944F002046D1C28782E2817D11F
:104D300015F8010F44F004042A280ED06FF02F025A
:104D40002878A0F1300109290AD80AEB8A0102EB80
:104D5000410100EB010A6D1CF2E758F804AB6D1C31
:104D600028786C280FD006DC4C2817D068280DD086
:104D70006A2814D104E0742810D07A280FD10DE0ED
:104D800044F400140AE044F4801401E044F44014B4
:104D90006978814202D104F580146D1C6D1C28785D
:104DA000692865D006DC00288DD0632827D06428C8
:104DB00006D15DE06E2808D073282AD0752877D0F8
:104DC000DDE90D129047761CE0E0C4F302500228A2
:104DD00009D003280DD0D8F8001004280DD00E609B
:104DE00008F10408D2E0D8F80010F217C1E9006217
:104DF000F6E7D8F800100E80F2E70E70F0E718F82A
:104E0000041B8DF8001000208DF80100EB460120F6
:104E100003E058F804BB4FF0FF3061074FF0000784
:104E200001D40AE07F1C57450DDA8742FADB1BF8F4
:104E300007100029F6D106E07F1C8742FCDB1BF837
:104E400007100029F8D1DDE90D23A9EB0700814601
:104E5000214600F0B1F83044C61904E0DDE90D1236
:104E60001BF8010B90477F1EF8D22146484688E088
:104E700058F8040BC4F302514FF00A0B032900D178
:104E800000B2042900D140B2002802DA40422D21AC
:104E900002E0210505D52B218DF82410012104E025
:104EA00006E0E10710D02021F6E708AF089113E0F3
:104EB00058F8040BC4F302514FF00A0B032900D138
:104EC00080B2042900D1C0B20021EEE75946FFF7B5
:104ED00061FE303107F8011D0028F7D1ADEB070066
:104EE00000F1200B600702D524F4803401E04FF07C
:104EF000010ADA4502DDAAEB0B0000E00020824641
:104F000000EB0B0108980144A9EB01000A90E003B3
:104F100006D4DDE90D2321460A9800F04DF8064439
:104F20004FF0000908E009A911F80900DDE90D12A8
:104F3000904709F10109761C08998945F3DBE003E4
:104F40000CD5DDE90D2321460A9800F035F806441A
:104F500004E0DDE90D1230209047761CBAF1000123
:104F6000AAF1010AF5DC05E0DDE90D1217F8010BE5
:104F70009047761CBBF10001ABF1010BF4DC0A9801
:104F80002146DDE90D2300F005F806446D1C97E687
:104F9000092801002DE9F041044600251E46174668
:104FA000880404D405E039462020B0476D1C641EF7
:104FB000F9D52846BDE8F0812DE9F04104460025E9
:104FC0001E469046C80301D5302700E020278804FC
:104FD00004D505E041463846B0476D1C641EF9D53E
:104FE0002846BDE8F0810A68531C0B6010707047BA
:104FF00010B5002821D0114B0022001F196803E0D2
:10500000814203D80A4649680029F9D152B1136890
:10501000841A9C4204D1006818441060104602E0D3
:10502000506000E0186039B102680B1A934203D156
:105030000B681A4402604968416010BDB402002048
:10504000F0B50B30154D20F007010024144A0FE095
:1050500003688B420BD38B4205D95E1A431847680D
:10506000C3E9006700E04368136002C004E0021D6A
:1050700010680028ECD12046002802D1286808B129
:105080000020F0BD064A07481060074A121A22F0B5
:105090000702C0E9002401202860D7E7B8020020F9
:1050A000B402002024090020200B00200000000092
:1050B00000000000002F000000000700070000149F
:1050C0007F147F1400242A7F2A12006264081323AD
:1050D00000364955225000000503000000001C2244
:1050E0004100000041221C000014083E0814000882
:1050F000083E0808000000A0600000080808080832
:10510000000060600000002010080402003E5149C9
:10511000453E0000427F4000004261514946002167
:1051200041454B31001814127F1000274545453981
:10513000003C4A49493000017109050300364949DC
:10514000493600064949291E000036360000000095
:1051500056360000000814224100001414141414E0
:105160000000412214080002015109060032495989
:10517000513E007C1211127C007F49494936003EA5
:1051800041414122007F4141221C007F4949494160
:10519000007F09090901003E4149497A007F08085A
:1051A000087F0000417F4100002040413F01007F17
:1051B00008142241007F40404040007F020C027FE3
:1051C000007F0408107F003E4141413E007F0909F5
:1051D0000906003E4151215E007F0919294600461B
:1051E000494949310001017F0101003F4040403FF2
:1051F000001F2040201F003F4038403F006314083C
:105200001463000708700807006151494543000016
:105210007F41410000552A552A55000041417F0039
:10522000000402010204004040404040000001022E
:105230000400002054545478007F48444438003817
:105240004444442000384444487F0038545454189F
:1052500000087E0901020018A4A4A47C007F0804B1
:1052600004780000447D4000004080847D00007F81
:10527000102844000000417F4000007C041804789E
:10528000007C0804047800384444443800FC24249A
:1052900024180018242418FC007C08040408004882
:1052A0005454542000043F444020003C4040207CA3
:1052B000001C2040201C003C4030403C0044281092
:1052C0002844001CA0A0A07C004464544C44141446
:1052D000141414140000000000000000000000007E
:1052E00000000000000000F8000000000000003393
:1052F0003000000000100C06100C0600000000003A
:105300000000000040C07840C0784000043F040422
:105310003F040400007088FC08300000001820FFE3
:10532000211E0000F008F000E018000000211C031E
:105330001E211E0000F00888700000001E2123249A
:105340001927211010160E000000000000000000B8
:1053500000000000000000E0180402000000000748
:105360001820400000020418E0000000004020184F
:1053700007000000404080F0804040000202010F22
:1053800001020200000000F0000000000101011F06
:1053900001010100000000000000000080B070006A
:1053A00000000000000000000000000000010101FA
:1053B0000101010100000000000000000030300089
:1053C0000000000000000000806018040060180663
:1053D0000100000000E010080810E000000F10209D
:1053E00020100F00001010F8000000000020203FE7
:1053F0002020000000700808088870000030282471
:105400002221300000300888884830000018202011
:1054100020110E000000C02010F800000007042436
:10542000243F240000F8088888080800001921207B
:1054300020110E0000E0108888180000000F1120D5
:1054400020110E0000380808C83808000000003F8E
:10545000000000000070880808887000001C2221ED
:1054600021221C0000E010080810E000000031229A
:1054700022110F00000000C0C0000000000000303A
:10548000300000000000008000000000000080608C
:10549000000000000000804020100800000102040D
:1054A00008102000404040404040400004040404F4
:1054B00004040400000810204080000000201008B0
:1054C00004020100007048080808F00000000030E5
:1054D00036010000C030C828E810E0000718272473
:1054E00023140B000000C038E0000000203C230221
:1054F0000227382008F8888888700000203F202084
:1055000020110E00C03008080808380007182020B5
:105510002010080008F808080810E000203F2020AC
:1055200020100F0008F88888E8081000203F20208D
:105530002320180008F88888E8081000203F200081
:1055400003000000C03008080838000007182020B9
:10555000221E020008F808000008F808203F210178
:1055600001213F20000808F8080800000020203F23
:105570002020000000000808F8080800C080808093
:105580007F00000008F888C028180800203F20018C
:105590002638200008F8080000000000203F2020E6
:1055A0002020300008F8F800F8F80800203F003FFD
:1055B000003F200008F830C00008F808203F200015
:1055C00007183F00E01008080810E0000F10202026
:1055D00020100F0008F808080808F000203F2101FB
:1055E00001010000E01008080810E0000F18242452
:1055F00038504F0008F8888888887000203F2000C5
:10560000030C30200070880808083800003820217A
:1056100021221C00180808F8080818000000203F84
:105620002000000008F808000008F808001F2020EB
:1056300020201F000878880000C8380800000738BC
:105640000E010000F80800F80008F800033C07000D
:10565000073C0300081868808068180820302C0375
:10566000032C30200838C800C83808000000203F4C
:105670002000000010080808C8380800203826213B
:1056800020201800000000FE020202000000007F3F
:1056900040404000000C30C000000000000000014D
:1056A0000638C00000020202FE0000000040404038
:1056B0007F0000000000040202020400000000005D
:1056C00000000000000000000000000080808080DA
:1056D00080808080000202040000000000000000C2
:1056E000000000000000808080800000001924225B
:1056F00022223F2008F8008080000000003F112097
:1057000020110E000000008080800000000E11209B
:1057100020201100000000808088F800000E112079
:1057200020103F200000808080800000001F222287
:1057300022221300008080F0888888180020203FF3
:10574000202000000000808080808000006B949406
:105750009493600008F8008080800000203F2100C2
:1057600000203F2000809898000000000020203F8B
:1057700020200000000000809898000000C0808079
:10578000807F000008F8000080808000203F240215
:105790002D302000000808F8000000000020203F05
:1057A000202000008080808080808000203F2000BA
:1057B0003F20003F8080008080800000203F21004B
:1057C00000203F200000808080800000001F2020FB
:1057D00020201F00808000808000000080FFA1202A
:1057E00020110E000000008080808000000E11203B
:1057F00020A0FF80808080008080800020203F21CA
:10580000200001000000808080808000003324247C
:1058100024241900008080E0808000000000001F28
:10582000202000008080000000808000001F2020D9
:1058300020103F20808080000080808000010E309A
:105840000806010080800080008080800F300C03FB
:105850000C300F0000808000808080000020312EFE
:105860000E312000808080000080808080818E70DA
:105870001806010000808080808080000021302C8C
:105880002221300000000000807C020200000000A5
:10589000003F404000000000FF000000000000004A
:1058A000FF0000000002027C800000000040403F3A
:1058B00000000000000601010202040400000000D4
:1058C00000000000E458000800000020BC020000B6
:1058D000E44B0008D8590008BC020020640C00000A
:1058E000944C00088130086D6E69662E636E2D3110
:1058F00038383307061832333435366579616E67C8
:10590000200931313232333334341B033101011A6F
:105910001A3201616813017B2264617461223A22A8
:10592000737461747573222C09E00C3A226F6666F9
:105930006C696E65227D03270101AA0A35011703F0
:105940001EB80B251060028C2BFE92010213FE186C
:105950000A04047E01407E42427E020C14427E40D4
:1059600040493F091740080B104448507F40407F92
:1059700050484440212809FC242424FC25262408DE
:1059800002110400101140308F80844C55252525CC
:10599000554C8080802809060909E6F80C040201AC
:1059A0000315041E2E071F30204001032720107B03
:1059B000A24A89680901020304060708090C691054
:1059C0003809020406084D515443E4F1123C120117
:0859D000191C024C57000000F5
:0400000508000131BD
:00000001FF
